:100000000C94BA000C94D7000C94D7000C94D70031
:100010000C94D7000C94D7000C94D7000C94D70004
:100020000C94D7000C94D7000C94D7000C94C00209
:100030000C940E030C94D7000C94D7000C94D700AA
:100040000C94D7000C94D7000C94D7000C94D700D4
:100050000C94D7000C94DA040C94D7000C94D700BD
:100060000C94D7000C94D7000C94D7000C94D700B4
:100070000C94D700000100004E011200020000EDB8
:100080000022002200000F013F00210000FF0009B4
:1000900000030000E9000401030904D50012020373
:1000A0000904A5002E2E0354006500630068006B50
:1000B000006500790073002000420075007300693C
:1000C000006E006500730073002000430061007241
:1000D0000064000000120354006500630068006BB8
:1000E000006500790073000000040309040902227E
:1000F00000010100A0320904000001030000000912
:100100002111010001223F000705810308000105BC
:10011000010906A10175019508050719E029E715F0
:10012000002501810295017508810395057501057A
:10013000081901290591029501750391039506752A
:1001400008150025680507190029688100C01201FB
:10015000000200000020C0167C0400010102000122
:1001600000004B050000220801C1220002C122004C
:1001700003C0220411241FBECFEFD2E0DEBFCDBFEB
:1001800011E0A0E0B1E0E2EBFCE002C005900D92CE
:10019000A435B107D9F711E0A4E5B1E001C01D9283
:1001A000A139B107E1F70E9441060C9457060C945F
:1001B0000000CF93C0E061E08C2F0E94D30161E08A
:1001C0008C2F0E94F801CF5FC430A9F7CF9108951A
:1001D0001F93CF93DF93C3E4D1E0188160E0812FB8
:1001E0000E94F80161E0812F0E94D301249681E0F2
:1001F000CF34D80791F7DF91CF911F9108958F9257
:100200009F92AF92BF92CF92DF92EF92FF920F93A5
:100210001F93CF93DF9302E811E083E4C82E81E0BF
:10022000D82EC6E8D1E0FF24F3949AE0E92E4E01DF
:1002300082E0881A9108F4011082FE0112925F0197
:10024000F60180810E94C001988119161CF491501A
:10025000988317C0F801908191110CC0882389F010
:10026000F501F082F801F082FE01339780818F253D
:10027000808306C0811105C0F401F082F80110826C
:10028000E8820B5F1F4FF4E0CF0ED11C259681E072
:100290000139180761F6DF91CF911F910F91FF90FF
:1002A000EF90DF90CF90BF90AF909F908F90089588
:1002B0000E94F4050E9430068FED9EE20197F1F74F
:1002C00000C0000008950C94D3018091840188231C
:1002D00061F06091830180EE90E00E94580160918E
:1002E000830181E068270E94D301809189018823DE
:1002F00069F06091880182EE90E00E94580160915F
:10030000880181E0682782E00E94D30180918E01FC
:1003100081110BC080918F01882381F060E08CE413
:1003200090E00E94580161E006C061E08CE490E03A
:100330000E94580160E083E00C94D301089520E00E
:1003400030E080E80FB6F89480936100209361005C
:100350000FBE0E946F020E9430060E94D9000E94C8
:10036000E8000C94D4040E94FF000E9465018FE90C
:100370009FE00197F1F700C00000089508950895E7
:1003800087FD0FC090E067E070E00E944606FC0128
:10039000E050FF4FA281B3819C918681982381E038
:1003A00009F480E0089587FD22C090E0662379F08B
:1003B00067E070E00E944606DC01A050BF4FED915F
:1003C000FC911197908116968C91892B0FC067E054
:1003D00070E00E944606DC01A050BF4FED91FC91F9
:1003E0001197908116968C9180958923808308952A
:1003F00087FD24C090E0662381F067E070E00E94F2
:100400004606DC01A050BF4F1496ED91FC91159764
:10041000908116968C91892B10C067E070E00E9445
:100420004606DC01A050BF4F1496ED91FC91159744
:10043000908116968C918095892380830895809170
:10044000E80080FFFCCF0895E8EEF0E080818E7F29
:10045000808380818F77808308958091E80082FF78
:10046000FCCF8091E8008B7F8093E8008091E800CA
:100470008F778093E8000895CF93DF93DC0197E0B6
:1004800024E730E0F901C591D491CA17DB0739F4AC
:10049000F9013296C591D491C617D70751F0295F5B
:1004A0003F4F915079F78091EB0080628093EB0091
:1004B00013C0BA01F901349685919491F9013696E9
:1004C000E491CFB7789421E040E250E00E945C04D0
:1004D00081110E942D02CFBFDF91CF91089584E05A
:1004E00089BD89B5826089BD09B400FEFDCF8091C8
:1004F000D80080688093D8008091D8008F7D809349
:10050000D8008091E0008E7F8093E0001092570128
:100510008CE28093E2007894809157018823E1F384
:100520008091E20081608093E2000895E2EEF0E0C5
:100530008081837F808310925701E0EEF0E080811C
:1005400081608083E8EDF0E080818F77808308957B
:100550008091570108958091560108958091560128
:10056000882369F08091E00082608093E0008091B0
:10057000E00081FDFCCF809156018111FCCF0895F0
:100580001F920F920FB60F9211242F933F934F9308
:100590005F936F937F938F939F93AF93BF93CF930B
:1005A000DF93EF93FF93D091E900C091E1001092A7
:1005B000E100C3FF06C080E00E94AB041092570127
:1005C00018C0C2FF0EC080915701882351F0E091FE
:1005D0003101F09132010995E0913301F09134013C
:1005E0000995C0FF03C081E080935601C5FD1092BC
:1005F0005601D093E900FF91EF91DF91CF91BF9128
:10060000AF919F918F917F916F915F914F913F91AA
:100610002F910F900FBE0F901F9018951F920F9261
:100620000FB60F921124FF920F931F932F933F93B6
:100630004F935F936F937F938F939F93AF93BF93EA
:10064000EF93FF93CF93DF93CDB7DEB72897DEBF4D
:10065000CDBFF090E9001092E9008091E80083FF9F
:10066000F2C068E0CE0101960E9441048091E8004A
:10067000877F8093E80089818F7709F069C08A813C
:10068000853079F48B818093E3000E941F020E94E1
:1006900024020E941F028091E30080688093E3009F
:1006A000D2C08930B9F48B81809357010E941F0218
:1006B0000E94240211E002E0812F0E94AB048823F3
:1006C00009F4BCC00093EA001092EA001F5F1430E6
:1006D00099F7B9C0883039F40E941F028091570100
:1006E0008093F10008C0811109C00E941F0210927E
:1006F000F1001092F1000E94240298C0863049F463
:100700004F8158856D817E818B819C810E943C0246
:100710009AC0833059F48B819C81019709F08EC077
:10072000809154019091550182600DC0813009F093
:1007300085C08B819C81019709F080C08091540114
:10074000909155018D7F90935501809354017BC00A
:10075000813029F48A81863009F070C0D1CF82308F
:1007600009F046C08A8181110FC00E941F028D814D
:100770008093E9008091EB0085FB882780F9109237
:10078000E9008093F100B5CF8D7F813009F056C02C
:100790008B819C81892B09F051C00D811E810F77BF
:1007A0001127C8010197039708F048C00E941F0253
:1007B0000E9424020093E9008A81833031F4809101
:1007C000EB0080628093EB0010C08091EB008861A9
:1007D0008093EB0081E090E0002E01C0880F0A9426
:1007E000EAF78093EA001092EA001092E9002BC029
:1007F000813221F5E0E6F1E04591549160E070E04E
:100800008D8190E0A0E0B0E0481759076A077B07A8
:10081000A9F4E2E6F1E025913491CE010196F901C7
:100820000995882359F0898187FF03C00E942D0212
:100830000AC00E941F020E94240205C08091EB00A2
:1008400080628093EB00F092E90028960FB6F8944E
:10085000DEBF0FBECDBFDF91CF91FF91EF91BF9172
:10086000AF919F918F917F916F915F914F913F9148
:100870002F911F910F91FF900F900FBE0F901F901F
:100880001895615030F02091F100FC012193CF01C7
:10089000F8CF0895615030F0FC012191CF012093F1
:1008A000F100F8CF0895615030F0FC0124912093BD
:1008B000F1000196F8CF0895BF92CF92DF92EF92A8
:1008C000FF920F931F93CF93DF937C01EB016A019B
:1008D000B22E2097A9F18091E80080FD04C080919C
:1008E000E80082FFF8CF8091E80082FF0CC0809181
:1008F000E8008B7F8093E8008091E8008F778093F9
:10090000E80080E01EC08E01CC16DD0608F48601EA
:10091000602FC701BB2019F00E94530402C00E943F
:100920004A048091E8008E7F8093E8008091E8007F
:100930008F778093E800E00EF11EC01BD10BC9CF6A
:1009400081E0DF91CF911F910F91FF90EF90DF90A9
:10095000CF90BF90089524E631E0F9019491981763
:1009600041F02C5F3F4FF1E024373F07B1F780E0C3
:100970000895F90184918093E90081E08093EB0070
:100980003196E491E093EC00F9013296E491E09322
:10099000ED008091EE0087FFEACFF9013396E491F4
:1009A000E093F00081E0089514BC81E085BD809360
:1009B0006E0008951F920F920FB60F9211242F937D
:1009C0003F934F935F936F937F938F939F93AF93D7
:1009D000BF93EF93FF9380913B0190913C01A091D5
:1009E0003D01B0913E010196A11DB11D80933B01D7
:1009F00090933C01A0933D01B0933E01409137019B
:100A0000509138016091390170913A0148175907A6
:100A10006A077B0768F410923B0110923C01109228
:100A20003D0110923E01E0913501F09136010995AA
:100A3000FF91EF91BF91AF919F918F917F916F91B6
:100A40005F914F913F912F910F900FBE0F901F908C
:100A50001895E8EEF0E080818E7F808380818F772B
:100A60008083089580917A01E1EFF0E08083108225
:100A700066E088E591E00C944A0480918101882326
:100A800039F0813039F460E28EE591E00C944A044B
:100A90000C9432050895FC01808187FF1BC0809172
:100AA000E80080FFFCCF8181823041F0833059F033
:100AB000813009F040C00E943D0509C0809141018C
:100AC0009091420102C0809181018093F1000E94C7
:100AD00029052FC081818A30D1F08B3039F18930DE
:100AE00051F58091E80082FFFCCF8091F100809366
:100AF0007F0181E080937E018091E8008B7F80936D
:100B0000E8008091E8008F778093E80012C083812D
:100B100090E0909342018093410180914101909136
:100B200042019093400180933F0103C082818093F2
:100B3000810181E0089580E008950E94A802882341
:100B4000C9F18091800181110DC080914101909186
:100B50004201892B79F180913F0190914001892BCD
:100B600009F0089581E08093E9008091E80080FD1C
:100B700012C08091EE0081FF0AC08091E80084607D
:100B80008093E8008091E80082FDFCCFF2CF809155
:100B9000EE0080FDF2CF0E943D050E9429051092D3
:100BA0008001809141019091420190934001809396
:100BB0003F0108950895E82FE695E695E695F0E063
:100BC000E25AFE4F2081422F50E0877021E030E052
:100BD00002C0220F331F8A95E2F72423352381E0D8
:100BE000232B09F480E00895E82FE695E695E69535
:100BF000482F4770F0E0E25AFE4F908121E030E04C
:100C0000042E01C0220F0A94EAF7611103C0209557
:100C1000292301C0292B20839091810191111FC0AC
:100C200020E030E0662389F0F901E85AFE4F908118
:100C3000992391F02F5F3F4F26303105A9F7089592
:100C40002F5F3F4F2630310551F0F901E85AFE4F32
:100C500090819813F5CF02C0808308951082089583
:100C600081E080938001089580917F0108958091B3
:100C70007E01882321F010927E0181E0089580E0BA
:100C800008950E949F010E94B301FDCF00245527C3
:100C900004C0080E591F880F991F009729F07695F8
:100CA0006795B8F37105B9F7802D952F0895F894DD
:020CB000FFCF74
:100CB2002500230024000225002300240010250023
:100CC200230024000825002300240004250023001B
:100CD2002400802500230024004025002300240056
:100CE200209D05BF01BE01E803000000000000F4E2
:100CF20001F4010401E0000502E20006034C0000D9
:040D020001020300E7
:00000001FF
