:100000000C94BA000C94D7000C94D7000C94D70031
:100010000C94D7000C94D7000C94D7000C94D70004
:100020000C94D7000C94D7000C94D7000C94890240
:100030000C94D7020C94D7000C94D7000C94D700E2
:100040000C94D7000C94D7000C94D7000C94D700D4
:100050000C94D7000C94A3040C94D7000C94D700F4
:100060000C94D7000C94D7000C94D7000C94D700B4
:100070000C94D700000100004E011200020000EDB8
:100080000022002200000F013F00210000FF0009B4
:1000900000030000E9000401030904D50012020373
:1000A0000904A5002E2E0354006500630068006B50
:1000B000006500790073002000420075007300693C
:1000C000006E006500730073002000430061007241
:1000D0000064000000120354006500630068006BB8
:1000E000006500790073000000040309040902227E
:1000F00000010100A0320904000001030000000912
:100100002111010001223F000705810308000105BC
:10011000010906A10175019508050719E029E715F0
:10012000002501810295017508810395057501057A
:10013000081901290591029501750391039506752A
:1001400008150025680507190029688100C01201FB
:10015000000200000020C0167C0400010102000122
:10016000000014050000220801C1220002C1220083
:1001700003C0220411241FBECFEFD2E0DEBFCDBFEB
:1001800011E0A0E0B1E0E4E4FCE002C005900D92D3
:10019000A433B107D9F711E0A4E3B1E001C01D9287
:1001A000A636B107E1F70E940A060C9420060C94CB
:1001B000000061E080E00E949C0161E080E00E941C
:1001C000C10161E081E00E949C0161E081E00C944A
:1001D000C10160E082E00E94C10161E082E00C9414
:1001E0009C01109263011092640182E00E948901D7
:1001F00090916501191624F491509093650108952A
:1002000090916201911108C0882381F081E0809370
:1002100064018093620107C0811108C081E080936E
:100220006301109262018AE08093650108950E9443
:10023000BD050E94F9058FED9EE20197F1F700C020
:10024000000008950C949C010F931F93CF93DF93AC
:10025000EC018C01060F171FC017D107F9F0888138
:10026000833311F08F3129F461E081EE90E00E9438
:100270001701888161E090E00E941701888160E0A9
:1002800090E00E9417018991833311F08F3121F79B
:1002900060E081EE90E00E941701DECFDF91CF9108
:1002A0001F910F91089580916301882331F068E0D8
:1002B00070E087E291E00E9424016091620181E098
:1002C0000C949C0120E030E080E80FB6F894809315
:1002D0006100209361000FBE0E9438020E94F90560
:1002E0000E94D9000E94E9000C949D040E94F10034
:1002F0000E9453018FE99FE00197F1F700C00000D1
:10030000089582E00E948901682F81E00C949C018D
:10031000089587FD0FC090E067E070E00E940F062F
:10032000FC01E050FF4FA281B3819C91868198230C
:1003300081E009F480E0089587FD22C090E0662303
:1003400079F067E070E00E940F06DC01A050BF4F1B
:10035000ED91FC911197908116968C91892B0FC08D
:1003600067E070E00E940F06DC01A050BF4FED91E6
:10037000FC911197908116968C91809589238083AA
:10038000089587FD24C090E0662381F067E070E067
:100390000E940F06DC01A050BF4F1496ED91FC9116
:1003A0001597908116968C91892B10C067E070E0AC
:1003B0000E940F06DC01A050BF4F1496ED91FC91F6
:1003C0001597908116968C91809589238083089546
:1003D0008091E80080FFFCCF0895E8EEF0E0808196
:1003E0008E7F808380818F77808308958091E8005D
:1003F00082FFFCCF8091E8008B7F8093E8008091A2
:10040000E8008F778093E8000895CF93DF93DC01B5
:1004100097E024E730E0F901C591D491CA17DB07D2
:1004200039F4F9013296C591D491C617D70751F026
:10043000295F3F4F915079F78091EB008062809364
:10044000EB0013C0BA01F901349685919491F9013A
:100450003696E491CFB7789421E040E250E00E94D4
:10046000250481110E94F601CFBFDF91CF9108953D
:1004700084E089BD89B5826089BD09B400FEFDCFE5
:100480008091D80080688093D8008091D8008F7DBB
:100490008093D8008091E0008E7F8093E0001092DE
:1004A00037018CE28093E2007894809137018823B1
:1004B000E1F38091E20081608093E2000895E2EE32
:1004C000F0E08081837F808310923701E0EEF0E0DE
:1004D000808181608083E8EDF0E080818F77808388
:1004E0000895809137010895809136010895809193
:1004F0003601882369F08091E00082608093E000FB
:100500008091E00081FDFCCF809136018111FCCF0C
:1005100008951F920F920FB60F9211242F933F93BD
:100520004F935F936F937F938F939F93AF93BF93FB
:10053000CF93DF93EF93FF93D091E900C091E10057
:100540001092E100C3FF06C080E00E947404109284
:10055000370118C0C2FF0EC080913701882351F0C7
:10056000E0911501F09116010995E0911701F091C4
:1005700018010995C0FF03C081E080933601C5FDD5
:1005800010923601D093E900FF91EF91DF91CF9166
:10059000BF91AF919F918F917F916F915F914F919B
:1005A0003F912F910F900FBE0F901F9018951F92A3
:1005B0000F920FB60F921124FF920F931F932F9358
:1005C0003F934F935F936F937F938F939F93AF93DB
:1005D000BF93EF93FF93CF93DF93CDB7DEB7289709
:1005E000DEBFCDBFF090E9001092E9008091E800F5
:1005F00083FFF2C068E0CE0101960E940A04809158
:10060000E800877F8093E80089818F7709F069C0CF
:100610008A81853079F48B818093E3000E94E80120
:100620000E94ED010E94E8018091E30080688093C0
:10063000E300D2C08930B9F48B81809337010E94E6
:10064000E8010E94ED0111E002E0812F0E94740494
:10065000882309F4BCC00093EA001092EA001F5FEF
:10066000143099F7B9C0883039F40E94E8018091BC
:1006700037018093F10008C0811109C00E94E80190
:100680001092F1001092F1000E94ED0198C08630A6
:1006900049F44F8158856D817E818B819C810E94B8
:1006A00005029AC0833059F48B819C81019709F02F
:1006B0008EC0809134019091350182600DC08130EF
:1006C00009F085C08B819C81019709F080C08091E1
:1006D0003401909135018D7F9093350180933401E1
:1006E0007BC0813029F48A81863009F070C0D1CF77
:1006F000823009F046C08A8181110FC00E94E80152
:100700008D818093E9008091EB0085FB882780F93B
:100710001092E9008093F100B5CF8D7F813009F010
:1007200056C08B819C81892B09F051C00D811E819F
:100730000F771127C8010197039708F048C00E945E
:10074000E8010E94ED010093E9008A81833031F4D1
:100750008091EB0080628093EB0010C08091EB00F1
:1007600088618093EB0081E090E0002E01C0880F4B
:100770000A94EAF78093EA001092EA001092E900E6
:100780002BC0813221F5E0E6F1E04591549160E023
:1007900070E08D8190E0A0E0B0E0481759076A074B
:1007A0007B07A9F4E2E6F1E025913491CE010196B0
:1007B000F9010995882359F0898187FF03C00E94B8
:1007C000F6010AC00E94E8010E94ED0105C0809177
:1007D000EB0080628093EB00F092E90028960FB660
:1007E000F894DEBF0FBECDBFDF91CF91FF91EF91A7
:1007F000BF91AF919F918F917F916F915F914F9139
:100800003F912F911F910F91FF900F900FBE0F906E
:100810001F901895615030F02091F100FC01219358
:10082000CF01F8CF0895615030F0FC012191CF0144
:100830002093F100F8CF0895615030F0FC0124912D
:100840002093F1000196F8CF0895BF92CF92DF92E6
:10085000EF92FF920F931F93CF93DF937C01EB01F5
:100860006A01B22E2097A9F18091E80080FD04C0B2
:100870008091E80082FFF8CF8091E80082FF0CC0F1
:100880008091E8008B7F8093E8008091E8008F776B
:100890008093E80080E01EC08E01CC16DD0608F4CF
:1008A0008601602FC701BB2019F00E941C0402C002
:1008B0000E9413048091E8008E7F8093E80080916D
:1008C000E8008F778093E800E00EF11EC01BD10B8B
:1008D000C9CF81E0DF91CF911F910F91FF90EF90F1
:1008E000DF90CF90BF90089524E631E0F901949114
:1008F000981741F02C5F3F4FF1E024373F07B1F7E5
:1009000080E00895F90184918093E90081E080936B
:10091000EB003196E491E093EC00F9013296E4911A
:10092000E093ED008091EE0087FFEACFF901339666
:10093000E491E093F00081E0089514BC81E085BD6E
:1009400080936E0008951F920F920FB60F9211249C
:100950002F933F934F935F936F937F938F939F93C7
:10096000AF93BF93EF93FF9380911F01909120016C
:10097000A0912101B09122010196A11DB11D80938A
:100980001F0190932001A0932101B0932201409177
:100990001B0150911C0160911D0170911E014817AF
:1009A00059076A077B0768F410921F011092200113
:1009B0001092210110922201E0911901F0911A0187
:1009C0000995FF91EF91BF91AF919F918F917F9189
:1009D0006F915F914F913F912F910F900FBE0F90AC
:1009E0001F901895E8EEF0E080818E7F80838081F3
:1009F0008F778083089580915A01E1EFF0E0808342
:100A0000108266E088E391E00C9413048091610108
:100A1000882339F0813039F460E28EE391E00C9460
:100A200013040C94FB040895FC01808187FF1BC014
:100A30008091E80080FFFCCF8181823041F08330DB
:100A400059F0813009F040C00E94060509C080912C
:100A500025019091260102C0809161018093F100EF
:100A60000E94F2042FC081818A30D1F08B3039F19D
:100A7000893051F58091E80082FFFCCF8091F10030
:100A800080935F0181E080935E018091E8008B7F1D
:100A90008093E8008091E8008F778093E80012C08F
:100AA000838190E090932601809325018091250118
:100AB00090912601909324018093230103C08281A9
:100AC0008093610181E0089580E008950E947102A1
:100AD0008823C9F18091600181110DC080912501A9
:100AE00090912601892B79F1809123019091240125
:100AF000892B09F0089581E08093E9008091E80056
:100B000080FD12C08091EE0081FF0AC08091E80054
:100B100084608093E8008091E80082FDFCCFF2CFF2
:100B20008091EE0080FDF2CF0E9406050E94F20443
:100B300010926001809125019091260190932401EB
:100B40008093230108950895E82FE695E695E695AC
:100B5000F0E0E25CFE4F2081422F50E0877021E000
:100B600030E002C0220F331F8A95E2F72423352399
:100B700081E0232B09F480E00895E82FE695E695BF
:100B8000E695482F4770F0E0E25CFE4F908121E04F
:100B900030E0042E01C0220F0A94EAF7611103C06D
:100BA0002095292301C0292B208390916101911167
:100BB0001FC020E030E0662389F0F901E85CFE4FB9
:100BC0009081992391F02F5F3F4F26303105A9F78F
:100BD00008952F5F3F4F2630310551F0F901E85C51
:100BE000FE4F90819813F5CF02C080830895108244
:100BF000089581E080936001089580915F010895D8
:100C000080915E01882321F010925E0181E00895B9
:100C100080E008950E9462010E947601FDCF0024C9
:100C2000552704C0080E591F880F991F009729F0F7
:100C300076956795B8F37105B9F7802D952F0895CE
:040C4000F894FFCF56
:100C44002B0029002A00102B0029002A0008250067
:100C54002300240002660588018101E803000000E6
:100C6400000000F401F401161807122C16182802CB
:040C7400010001007A
:00000001FF
