:100000000C94BA000C94D7000C94D7000C94D70031
:100010000C94D7000C94D7000C94D7000C94D70004
:100020000C94D7000C94D7000C94D7000C94B30216
:100030000C9401030C94D7000C94D7000C94D700B7
:100040000C94D7000C94D7000C94D7000C94D700D4
:100050000C94D7000C94C9040C94D7000C94D700CE
:100060000C94D7000C94D7000C94D7000C94D700B4
:100070000C94D700000100004E011200020000EDB8
:100080000022002200000F013F00210000FF0009B4
:1000900000030000E9000401030904D50012020373
:1000A0000904A5002E2E0354006500630068006B50
:1000B000006500790073002000420075007300693C
:1000C000006E006500730073002000430061007241
:1000D0000064000000120354006500630068006BB8
:1000E000006500790073000000040309040902227E
:1000F00000010100A0320904000001030000000912
:100100002111010001223F000705810308000105BC
:10011000010906A10175019508050719E029E715F0
:10012000002501810295017508810395057501057A
:10013000081901290591029501750391039506752A
:1001400008150025680507190029688100C01201FB
:10015000000200000020C0167C0400010102000122
:1001600000003A050000220801C1220002C122005D
:1001700003C0220411241FBECFEFD2E0DEBFCDBFEB
:1001800011E0A0E0B1E0EAE9FCE002C005900D92C8
:10019000A435B107D9F711E0A4E5B1E001C01D9283
:1001A000AE38B107E1F70E9435060C944B060C946B
:1001B0000000CF93C0E061E08C2F0E94CA0161E093
:1001C0008C2F0E94EF01CF5FC430A9F7CF91089523
:1001D0001F93CF93DF93C3E4D1E0188160E0812FB8
:1001E0000E94EF0161E0812F0E94CA01249681E004
:1001F000CF34D80791F7DF91CF911F9108958F9257
:100200009F92AF92BF92CF92DF92EF92FF920F93A5
:100210001F93CF93DF9303E811E082E8E82E81E09B
:10022000F82E94E8C92E91E0D92E23E4A22E21E0E5
:10023000B22EC5E8D1E0992493943AE0832EF801D8
:100240001082F6011082F50180810E94B701988129
:1002500019161CF49150988312C0F70190819111E6
:1002600007C0882361F0F6019082F701908206C0F2
:10027000811105C0F8019082F701108288820C5F1D
:100280001F4FF4E0EF0EF11C84E0C80ED11CE4E037
:10029000AE0EB11C2496F1E00F381F0781F6DF91F6
:1002A000CF911F910F91FF90EF90DF90CF90BF9073
:1002B000AF909F908F9008950E94E7050E942406BA
:1002C0008FED9EE20197F1F700C0000008950C94B5
:1002D000CA010F931F93CF93DF93C4E4D1E004E8E6
:1002E00011E0F80131978081882339F061E089813C
:1002F0009A810E945C0160E00AC0F8018081882335
:1003000049F060E089819A810E945C0161E0888106
:100310000E94CA0124960C5F1F4FF1E0C035DF0731
:1003200001F7DF91CF911F910F91089580E090E048
:1003300020E80FB6F89420936100809361000FBE0F
:100340000E9462020E9424060E94D9000E94E800D6
:100350000C94C3040E94FF000E9469018FE99FE092
:100360000197F1F700C0000008950895089587FDF2
:100370000FC090E067E070E00E943A06FC01E05098
:10038000FF4FA281B3819C918681982381E009F47B
:1003900080E0089587FD22C090E0662379F067E051
:1003A00070E00E943A06DC01A050BF4FED91FC9135
:1003B0001197808116969C91892B0FC067E070E0A1
:1003C0000E943A06DC01A050BF4FED91FC911197BD
:1003D000908116968C91809589238083089587FD5E
:1003E00024C090E0662381F067E070E00E943A0646
:1003F000DC01A050BF4F1496ED91FC9115978081C0
:1004000016969C91892B10C067E070E00E943A0616
:10041000DC01A050BF4F1496ED91FC91159790818F
:1004200016968C9180958923808308958091E800A9
:1004300080FFFCCF0895E8EEF0E080818E7F80831E
:1004400080818F77808308958091E80082FFFCCFC0
:100450008091E8008B7F8093E8008091E8008F779F
:100460008093E8000895CF93DB01BA01C7E024E749
:1004700030E0F901459154914817590739F4F901D1
:100480003296459154914A175B0751F0295F3F4FCF
:10049000C15079F78091EB0080628093EB0010C02F
:1004A0002C5F3F4FF90185919491CFB7789421E06B
:1004B00040E250E00E944C0481110E942402CFBF10
:1004C000CF91089584E089BD89B5826089BD09B462
:1004D00000FEFDCF8091D80080688093D800809185
:1004E000D8008F7D8093D8008091E0008E7F80932C
:1004F000E000109257018CE28093E20078948091A2
:1005000057018823E1F38091E20081608093E2004B
:100510000895E2EEF0E08081837F8083109257019E
:10052000E0EEF0E0808181608083E8EDF0E08081A2
:100530008F778083089580915701089580915601A7
:10054000089580915601882369F08091E0008260CF
:100550008093E0008091E00081FDFCCF8091560106
:100560008111FCCF08951F920F920FB60F921124A4
:100570002F933F934F935F936F937F938F939F93AB
:10058000AF93BF93CF93DF93EF93FF93D091E900A5
:10059000C091E1001092E100C3FF06C080E00E941C
:1005A0009B041092570118C0C2FF0EC080915701E2
:1005B000882351F0E0913101F09132010995E091E9
:1005C0003301F09134010995C0FF03C081E08093AD
:1005D0005601C5FD10925601D093E900FF91EF91AD
:1005E000DF91CF91BF91AF919F918F917F916F914B
:1005F0005F914F913F912F910F900FBE0F901F90E1
:1006000018951F920F920FB60F921124FF920F931D
:100610001F932F933F934F935F936F937F938F938A
:100620009F93AF93BF93EF93FF93CF93DF93CDB798
:10063000DEB72897DEBFCDBFF090E9001092E90049
:100640008091E80083FFEFC068E0CE0101960E9430
:1006500031048091E800877F8093E80089818F775B
:1006600009F05CC08A81853079F48B818093E30046
:100670000E9416020E941B020E9416028091E30053
:1006800080688093E300CFC08930B9F48B81809378
:1006900057010E9416020E941B0211E002E0812F06
:1006A0000E949B04882309F494C00093EA001092EE
:1006B000EA001F5F143099F7B6C0883039F40E9401
:1006C0001602809157018093F1004DC0811105C041
:1006D0000E9416021092F10044C0863029F1833046
:1006E00059F48B819C81019709F073C0809154016A
:1006F0009091550182600DC0813009F06AC08B81F4
:100700009C81019709F065C0809154019091550139
:100710008D7F909355018093540185C0813069F499
:100720008A81863009F055C04F8158856D817E8160
:100730008B819C810E94330276C0823009F047C0D1
:100740008A81811113C00E9416028D818093E90075
:100750008091EB0085FB882780F91092E900809357
:10076000F1001092F1000E941B0256C08D7F813073
:1007700081F58B819C81892B61F50D811E810F771D
:100780001127C8010197039720F50E9416020E94C5
:100790001B020093E9008A81833031F48091EB00E1
:1007A00080628093EB0010C08091EB0088618093A1
:1007B000EB0081E090E0002E01C0880F0A94EAF778
:1007C0008093EA001092EA001092E9002CC0813276
:1007D00031F08091EB0080628093EB0024C0E0E672
:1007E000F1E04591549160E070E08D8190E0A0E0EF
:1007F000B0E0481759076A077B0759F7E2E6F1E0CE
:1008000025913491CE010196F9010995882309F3C8
:1008100089818078803819F40E94240204C00E94E3
:1008200016020E941B02F092E90028960FB6F89477
:10083000DEBF0FBECDBFDF91CF91FF91EF91BF9192
:10084000AF919F918F917F916F915F914F913F9168
:100850002F911F910F91FF900F900FBE0F901F903F
:100860001895615030F02091F100FC012193CF01E7
:10087000F8CF0895615030F0FC012191CF01209311
:10088000F100F8CF0895615030F0FC0124912093DD
:10089000F1000196F8CF0895BF92CF92DF92EF92C8
:1008A000FF920F931F93CF93DF937C01EB016A01BB
:1008B000B22E2097A9F18091E80080FD04C08091BC
:1008C000E80082FFF8CF8091E80082FF0CC08091A1
:1008D000E8008B7F8093E8008091E8008F77809319
:1008E000E80080E01EC08E01CC16DD0608F486010B
:1008F000602FC701BB2019F00E94430402C00E9470
:100900003A048091E8008E7F8093E8008091E800AF
:100910008F778093E800E00EF11EC01BD10BC9CF8A
:1009200081E0DF91CF911F910F91FF90EF90DF90C9
:10093000CF90BF90089524E631E0F9019491981783
:1009400041F02C5F3F4FF1E024373F07B1F780E0E3
:1009500008958093E90081E08093EB00F9013196DE
:10096000E491E093EC00F9013296E491E093ED001C
:100970008091EE0087FFEBCFF9013396249120930D
:10098000F00081E0089514BC81E085BD80936E0085
:1009900008951F920F920FB60F9211242F933F9339
:1009A0004F935F936F937F938F939F93AF93BF9377
:1009B000EF93FF9380913B0190913C01A0913D0109
:1009C000B0913E010196A11DB11D80933B01909312
:1009D0003C01A0933D01B0933E01409137015091FD
:1009E00038016091390170913A01481759076A0737
:1009F0007B0768F410923B0110923C0110923D017C
:100A000010923E01E0913501F09136010995FF9178
:100A1000EF91BF91AF919F918F917F916F915F9176
:100A20004F913F912F910F900FBE0F901F901895EF
:100A3000E8EEF0E080818E7F808380818F778083F5
:100A4000089580917A01E1EFF0E08083108266E002
:100A500088E591E00C943A0480918101882339F073
:100A6000813039F460E28EE591E00C943A040C9404
:100A700021050895FC01808180788038D9F4809127
:100A8000E80080FFFCCF8181823041F0833059F053
:100A9000813009F040C00E942C0509C080914101BD
:100AA0009091420102C0809181018093F1000E94E7
:100AB00018052FC081818A30D1F08B3039F189300F
:100AC00051F58091E80082FFFCCF8091F100809386
:100AD0007F0181E080937E018091E8008B7F80938D
:100AE000E8008091E8008F778093E80012C083814E
:100AF00090E0909342018093410180914101909157
:100B000042019093400180933F0103C08281809312
:100B1000810181E0089580E008950E949B0288236E
:100B2000E9F18091800181110EC080914101909185
:100B30004201892B11F480E007C080913F01909120
:100B40004001892BC1F781E0882341F181E0809346
:100B5000E9008091E80080FF1CC00E942C050E94E3
:100B6000180510928001809141019091420190936B
:100B7000400180933F0108958091EE0080FFEDCF0A
:100B80008091E80084608093E8008091E80082FD15
:100B9000FCCF8091EE0081FFEFCFF2CF0895E82FD8
:100BA000E695E695E695F0E0E25AFE4F208130E0CA
:100BB000877041E050E002C0440F551F8A95E2F76C
:100BC0002423352381E0232B09F480E00895E82FC6
:100BD000E695E695E695482F4770F0E0E25AFE4F1D
:100BE000908121E030E0042E01C0220F0A94EAF740
:100BF000611104C020952923208302C0922B908389
:100C00009091810191111FC020E030E0662389F0AE
:100C1000F901E85AFE4F9081992391F02F5F3F4FE1
:100C200026303105A9F70FC02F5F3F4F2630310521
:100C300051F0F901E85AFE4F90819813F5CF02C0A8
:100C4000808308951082089581E080938001089543
:100C500080917F01089580917E01882321F0109278
:100C60007E0181E0089580E008950E9496010E942F
:100C7000AA01FDCF0024552704C0080E591F880F74
:100C8000991F009729F076956795B8F37105B9F724
:0A0C9000802D952F0895F894FFCFF2
:100C9A00250023002400022500230024001025003B
:100CAA002300240008250023002400042500230033
:100CBA00240080250023002400402500230024006E
:100CCA00208D05B601B501E803000000000000F41C
:100CDA0001F4010401E0000502E20006034C0000F1
:040CEA000102030000
:00000001FF
